{
  "_format": "hh-sol-artifact-1",
  "contractName": "VotingSystem",
  "sourceName": "contracts/votingSystem.sol",
  "abi": [
    {
      "inputs": [
        {
          "internalType": "address",
          "name": "_subAdmin",
          "type": "address"
        }
      ],
      "stateMutability": "nonpayable",
      "type": "constructor"
    },
    {
      "anonymous": false,
      "inputs": [
        {
          "indexed": false,
          "internalType": "string",
          "name": "name",
          "type": "string"
        },
        {
          "indexed": false,
          "internalType": "string",
          "name": "seatType",
          "type": "string"
        },
        {
          "indexed": false,
          "internalType": "string",
          "name": "constituency",
          "type": "string"
        },
        {
          "indexed": false,
          "internalType": "address",
          "name": "walletAddress",
          "type": "address"
        },
        {
          "indexed": false,
          "internalType": "string",
          "name": "partyName",
          "type": "string"
        },
        {
          "indexed": false,
          "internalType": "string",
          "name": "cnic",
          "type": "string"
        },
        {
          "indexed": false,
          "internalType": "string",
          "name": "profilePic",
          "type": "string"
        },
        {
          "indexed": false,
          "internalType": "string",
          "name": "partySignImage",
          "type": "string"
        }
      ],
      "name": "CandidateRegistered",
      "type": "event"
    },
    {
      "anonymous": false,
      "inputs": [
        {
          "indexed": true,
          "internalType": "address",
          "name": "candidateAddress",
          "type": "address"
        }
      ],
      "name": "CandidateWithdrawn",
      "type": "event"
    },
    {
      "anonymous": false,
      "inputs": [
        {
          "indexed": false,
          "internalType": "address",
          "name": "independentCandidateAddress",
          "type": "address"
        },
        {
          "indexed": false,
          "internalType": "string",
          "name": "firstName",
          "type": "string"
        },
        {
          "indexed": false,
          "internalType": "string",
          "name": "lastName",
          "type": "string"
        },
        {
          "indexed": false,
          "internalType": "string",
          "name": "partyName",
          "type": "string"
        },
        {
          "indexed": false,
          "internalType": "string",
          "name": "seatType",
          "type": "string"
        }
      ],
      "name": "IndependentCandidateRegistered",
      "type": "event"
    },
    {
      "anonymous": false,
      "inputs": [
        {
          "indexed": false,
          "internalType": "string",
          "name": "name",
          "type": "string"
        },
        {
          "indexed": false,
          "internalType": "string",
          "name": "leaderName",
          "type": "string"
        },
        {
          "indexed": false,
          "internalType": "address",
          "name": "leaderAddress",
          "type": "address"
        },
        {
          "indexed": false,
          "internalType": "string",
          "name": "leaderCnic",
          "type": "string"
        },
        {
          "indexed": false,
          "internalType": "string",
          "name": "flagSignName",
          "type": "string"
        },
        {
          "indexed": false,
          "internalType": "string",
          "name": "flagSignImage",
          "type": "string"
        },
        {
          "indexed": false,
          "internalType": "string",
          "name": "leaderFingerprint",
          "type": "string"
        },
        {
          "indexed": false,
          "internalType": "string",
          "name": "leaderProfilePic",
          "type": "string"
        }
      ],
      "name": "PartyRegistered",
      "type": "event"
    },
    {
      "anonymous": false,
      "inputs": [
        {
          "indexed": true,
          "internalType": "address",
          "name": "voter",
          "type": "address"
        },
        {
          "indexed": true,
          "internalType": "address",
          "name": "candidate",
          "type": "address"
        },
        {
          "indexed": false,
          "internalType": "string",
          "name": "seatType",
          "type": "string"
        }
      ],
      "name": "VoteCasted",
      "type": "event"
    },
    {
      "anonymous": false,
      "inputs": [
        {
          "indexed": false,
          "internalType": "address",
          "name": "voterAddress",
          "type": "address"
        },
        {
          "indexed": false,
          "internalType": "string",
          "name": "firstName",
          "type": "string"
        },
        {
          "indexed": false,
          "internalType": "string",
          "name": "lastName",
          "type": "string"
        }
      ],
      "name": "VoterRegistered",
      "type": "event"
    },
    {
      "inputs": [
        {
          "internalType": "uint256",
          "name": "",
          "type": "uint256"
        }
      ],
      "name": "candidateAddresses",
      "outputs": [
        {
          "internalType": "address",
          "name": "",
          "type": "address"
        }
      ],
      "stateMutability": "view",
      "type": "function"
    },
    {
      "inputs": [
        {
          "internalType": "uint256",
          "name": "",
          "type": "uint256"
        }
      ],
      "name": "candidateRegistrationPeriods",
      "outputs": [
        {
          "internalType": "uint256",
          "name": "startDay",
          "type": "uint256"
        },
        {
          "internalType": "uint256",
          "name": "startMonth",
          "type": "uint256"
        },
        {
          "internalType": "uint256",
          "name": "startYear",
          "type": "uint256"
        },
        {
          "internalType": "uint256",
          "name": "startHour",
          "type": "uint256"
        },
        {
          "internalType": "uint256",
          "name": "endDay",
          "type": "uint256"
        },
        {
          "internalType": "uint256",
          "name": "endMonth",
          "type": "uint256"
        },
        {
          "internalType": "uint256",
          "name": "endYear",
          "type": "uint256"
        },
        {
          "internalType": "uint256",
          "name": "endHour",
          "type": "uint256"
        }
      ],
      "stateMutability": "view",
      "type": "function"
    },
    {
      "inputs": [
        {
          "internalType": "string",
          "name": "",
          "type": "string"
        },
        {
          "internalType": "string",
          "name": "",
          "type": "string"
        }
      ],
      "name": "constituencyVoterCount",
      "outputs": [
        {
          "internalType": "uint256",
          "name": "",
          "type": "uint256"
        }
      ],
      "stateMutability": "view",
      "type": "function"
    },
    {
      "inputs": [],
      "name": "electionYearByAdmin",
      "outputs": [
        {
          "internalType": "uint256",
          "name": "",
          "type": "uint256"
        }
      ],
      "stateMutability": "view",
      "type": "function"
    },
    {
      "inputs": [
        {
          "internalType": "uint256",
          "name": "",
          "type": "uint256"
        }
      ],
      "name": "electionYears",
      "outputs": [
        {
          "internalType": "uint256",
          "name": "startDay",
          "type": "uint256"
        },
        {
          "internalType": "uint256",
          "name": "startMonth",
          "type": "uint256"
        },
        {
          "internalType": "uint256",
          "name": "startYear",
          "type": "uint256"
        },
        {
          "internalType": "uint256",
          "name": "startHour",
          "type": "uint256"
        },
        {
          "internalType": "uint256",
          "name": "endDay",
          "type": "uint256"
        },
        {
          "internalType": "uint256",
          "name": "endMonth",
          "type": "uint256"
        },
        {
          "internalType": "uint256",
          "name": "endYear",
          "type": "uint256"
        },
        {
          "internalType": "uint256",
          "name": "endHour",
          "type": "uint256"
        }
      ],
      "stateMutability": "view",
      "type": "function"
    },
    {
      "inputs": [],
      "name": "getAllCandidates",
      "outputs": [
        {
          "internalType": "address[]",
          "name": "",
          "type": "address[]"
        }
      ],
      "stateMutability": "view",
      "type": "function"
    },
    {
      "inputs": [],
      "name": "getAllParties",
      "outputs": [
        {
          "internalType": "address[]",
          "name": "",
          "type": "address[]"
        }
      ],
      "stateMutability": "view",
      "type": "function"
    },
    {
      "inputs": [],
      "name": "getAllVoters",
      "outputs": [
        {
          "components": [
            {
              "internalType": "string",
              "name": "firstName",
              "type": "string"
            },
            {
              "internalType": "string",
              "name": "lastName",
              "type": "string"
            },
            {
              "internalType": "string",
              "name": "cnic",
              "type": "string"
            },
            {
              "internalType": "string",
              "name": "phoneNumber",
              "type": "string"
            },
            {
              "internalType": "uint256",
              "name": "birthYear",
              "type": "uint256"
            },
            {
              "internalType": "uint256",
              "name": "birthMonth",
              "type": "uint256"
            },
            {
              "internalType": "uint256",
              "name": "birthDay",
              "type": "uint256"
            },
            {
              "internalType": "string",
              "name": "constituency",
              "type": "string"
            },
            {
              "internalType": "string",
              "name": "gender",
              "type": "string"
            },
            {
              "internalType": "string",
              "name": "cnicImage",
              "type": "string"
            },
            {
              "internalType": "string",
              "name": "fingerprint",
              "type": "string"
            },
            {
              "internalType": "bool",
              "name": "acceptedVotingTerm",
              "type": "bool"
            },
            {
              "internalType": "uint256",
              "name": "electionYear",
              "type": "uint256"
            },
            {
              "internalType": "bool",
              "name": "isRegistered",
              "type": "bool"
            }
          ],
          "internalType": "struct VotingSystem.Voter[]",
          "name": "",
          "type": "tuple[]"
        }
      ],
      "stateMutability": "view",
      "type": "function"
    },
    {
      "inputs": [
        {
          "internalType": "address",
          "name": "_walletAddress",
          "type": "address"
        }
      ],
      "name": "getCandidate",
      "outputs": [
        {
          "components": [
            {
              "internalType": "string",
              "name": "name",
              "type": "string"
            },
            {
              "internalType": "string",
              "name": "seatType",
              "type": "string"
            },
            {
              "internalType": "string",
              "name": "constituency",
              "type": "string"
            },
            {
              "internalType": "address",
              "name": "walletAddress",
              "type": "address"
            },
            {
              "internalType": "string",
              "name": "partyName",
              "type": "string"
            },
            {
              "internalType": "string",
              "name": "cnic",
              "type": "string"
            },
            {
              "internalType": "string",
              "name": "profilePic",
              "type": "string"
            },
            {
              "internalType": "string",
              "name": "partySignImage",
              "type": "string"
            },
            {
              "internalType": "uint256",
              "name": "electionYear",
              "type": "uint256"
            },
            {
              "internalType": "bool",
              "name": "isRegistered",
              "type": "bool"
            },
            {
              "internalType": "uint256",
              "name": "voteCount",
              "type": "uint256"
            },
            {
              "internalType": "enum VotingSystem.Role",
              "name": "assignRole",
              "type": "uint8"
            }
          ],
          "internalType": "struct VotingSystem.Candidate",
          "name": "",
          "type": "tuple"
        }
      ],
      "stateMutability": "view",
      "type": "function"
    },
    {
      "inputs": [],
      "name": "getCandidatesByConstituency",
      "outputs": [
        {
          "components": [
            {
              "internalType": "string",
              "name": "name",
              "type": "string"
            },
            {
              "internalType": "string",
              "name": "seatType",
              "type": "string"
            },
            {
              "internalType": "string",
              "name": "constituency",
              "type": "string"
            },
            {
              "internalType": "address",
              "name": "walletAddress",
              "type": "address"
            },
            {
              "internalType": "string",
              "name": "partyName",
              "type": "string"
            },
            {
              "internalType": "string",
              "name": "cnic",
              "type": "string"
            },
            {
              "internalType": "string",
              "name": "profilePic",
              "type": "string"
            },
            {
              "internalType": "string",
              "name": "partySignImage",
              "type": "string"
            },
            {
              "internalType": "uint256",
              "name": "electionYear",
              "type": "uint256"
            },
            {
              "internalType": "bool",
              "name": "isRegistered",
              "type": "bool"
            },
            {
              "internalType": "uint256",
              "name": "voteCount",
              "type": "uint256"
            },
            {
              "internalType": "enum VotingSystem.Role",
              "name": "assignRole",
              "type": "uint8"
            }
          ],
          "internalType": "struct VotingSystem.Candidate[]",
          "name": "",
          "type": "tuple[]"
        },
        {
          "components": [
            {
              "internalType": "string",
              "name": "firstName",
              "type": "string"
            },
            {
              "internalType": "string",
              "name": "lastName",
              "type": "string"
            },
            {
              "internalType": "string",
              "name": "cnic",
              "type": "string"
            },
            {
              "internalType": "string",
              "name": "phoneNumber",
              "type": "string"
            },
            {
              "internalType": "uint256",
              "name": "birthYear",
              "type": "uint256"
            },
            {
              "internalType": "uint256",
              "name": "birthMonth",
              "type": "uint256"
            },
            {
              "internalType": "uint256",
              "name": "birthDay",
              "type": "uint256"
            },
            {
              "internalType": "string",
              "name": "constituency",
              "type": "string"
            },
            {
              "internalType": "string",
              "name": "gender",
              "type": "string"
            },
            {
              "internalType": "string",
              "name": "cnicImage",
              "type": "string"
            },
            {
              "internalType": "string",
              "name": "fingerprint",
              "type": "string"
            },
            {
              "internalType": "string",
              "name": "partyName",
              "type": "string"
            },
            {
              "internalType": "string",
              "name": "independentCandidateAddress",
              "type": "string"
            },
            {
              "internalType": "string",
              "name": "flagSign",
              "type": "string"
            },
            {
              "internalType": "string",
              "name": "profileImage",
              "type": "string"
            },
            {
              "internalType": "bool",
              "name": "acceptedVotingTerm",
              "type": "bool"
            },
            {
              "internalType": "uint256",
              "name": "electionYear",
              "type": "uint256"
            },
            {
              "internalType": "bool",
              "name": "isRegistered",
              "type": "bool"
            },
            {
              "internalType": "string",
              "name": "seatType",
              "type": "string"
            },
            {
              "internalType": "uint256",
              "name": "voteCount",
              "type": "uint256"
            }
          ],
          "internalType": "struct VotingSystem.IndependentCandidate[]",
          "name": "",
          "type": "tuple[]"
        }
      ],
      "stateMutability": "view",
      "type": "function"
    },
    {
      "inputs": [],
      "name": "getCurrentAndPreviousTurnout",
      "outputs": [
        {
          "internalType": "uint256",
          "name": "currentYearTurnout",
          "type": "uint256"
        },
        {
          "internalType": "uint256",
          "name": "prevYearTurnout",
          "type": "uint256"
        }
      ],
      "stateMutability": "view",
      "type": "function"
    },
    {
      "inputs": [],
      "name": "getElectionYear",
      "outputs": [
        {
          "internalType": "uint256",
          "name": "",
          "type": "uint256"
        }
      ],
      "stateMutability": "view",
      "type": "function"
    },
    {
      "inputs": [
        {
          "internalType": "uint256",
          "name": "year",
          "type": "uint256"
        }
      ],
      "name": "getElectionYearTimeFrame",
      "outputs": [
        {
          "internalType": "uint256",
          "name": "startDay",
          "type": "uint256"
        },
        {
          "internalType": "uint256",
          "name": "startMonth",
          "type": "uint256"
        },
        {
          "internalType": "uint256",
          "name": "startYear",
          "type": "uint256"
        },
        {
          "internalType": "uint256",
          "name": "startHour",
          "type": "uint256"
        },
        {
          "internalType": "uint256",
          "name": "endDay",
          "type": "uint256"
        },
        {
          "internalType": "uint256",
          "name": "endMonth",
          "type": "uint256"
        },
        {
          "internalType": "uint256",
          "name": "endYear",
          "type": "uint256"
        },
        {
          "internalType": "uint256",
          "name": "endHour",
          "type": "uint256"
        }
      ],
      "stateMutability": "view",
      "type": "function"
    },
    {
      "inputs": [
        {
          "internalType": "address",
          "name": "_independentCandidateAddress",
          "type": "address"
        }
      ],
      "name": "getIndependentCandidate",
      "outputs": [
        {
          "components": [
            {
              "internalType": "string",
              "name": "firstName",
              "type": "string"
            },
            {
              "internalType": "string",
              "name": "lastName",
              "type": "string"
            },
            {
              "internalType": "string",
              "name": "cnic",
              "type": "string"
            },
            {
              "internalType": "string",
              "name": "phoneNumber",
              "type": "string"
            },
            {
              "internalType": "uint256",
              "name": "birthYear",
              "type": "uint256"
            },
            {
              "internalType": "uint256",
              "name": "birthMonth",
              "type": "uint256"
            },
            {
              "internalType": "uint256",
              "name": "birthDay",
              "type": "uint256"
            },
            {
              "internalType": "string",
              "name": "constituency",
              "type": "string"
            },
            {
              "internalType": "string",
              "name": "gender",
              "type": "string"
            },
            {
              "internalType": "string",
              "name": "cnicImage",
              "type": "string"
            },
            {
              "internalType": "string",
              "name": "fingerprint",
              "type": "string"
            },
            {
              "internalType": "string",
              "name": "partyName",
              "type": "string"
            },
            {
              "internalType": "string",
              "name": "independentCandidateAddress",
              "type": "string"
            },
            {
              "internalType": "string",
              "name": "flagSign",
              "type": "string"
            },
            {
              "internalType": "string",
              "name": "profileImage",
              "type": "string"
            },
            {
              "internalType": "bool",
              "name": "acceptedVotingTerm",
              "type": "bool"
            },
            {
              "internalType": "uint256",
              "name": "electionYear",
              "type": "uint256"
            },
            {
              "internalType": "bool",
              "name": "isRegistered",
              "type": "bool"
            },
            {
              "internalType": "string",
              "name": "seatType",
              "type": "string"
            },
            {
              "internalType": "uint256",
              "name": "voteCount",
              "type": "uint256"
            }
          ],
          "internalType": "struct VotingSystem.IndependentCandidate",
          "name": "",
          "type": "tuple"
        }
      ],
      "stateMutability": "view",
      "type": "function"
    },
    {
      "inputs": [
        {
          "internalType": "address",
          "name": "_leaderAddress",
          "type": "address"
        }
      ],
      "name": "getParty",
      "outputs": [
        {
          "components": [
            {
              "internalType": "string",
              "name": "name",
              "type": "string"
            },
            {
              "internalType": "string",
              "name": "leaderName",
              "type": "string"
            },
            {
              "internalType": "address",
              "name": "leaderAddress",
              "type": "address"
            },
            {
              "internalType": "string",
              "name": "leaderCnic",
              "type": "string"
            },
            {
              "internalType": "string",
              "name": "flagSignName",
              "type": "string"
            },
            {
              "internalType": "string",
              "name": "flagSignImage",
              "type": "string"
            },
            {
              "internalType": "string",
              "name": "leaderFingerprint",
              "type": "string"
            },
            {
              "internalType": "string",
              "name": "leaderProfilePic",
              "type": "string"
            },
            {
              "internalType": "uint256",
              "name": "electionYear",
              "type": "uint256"
            },
            {
              "internalType": "bool",
              "name": "isRegistered",
              "type": "bool"
            },
            {
              "internalType": "enum VotingSystem.Role",
              "name": "assignRole",
              "type": "uint8"
            }
          ],
          "internalType": "struct VotingSystem.Party",
          "name": "",
          "type": "tuple"
        }
      ],
      "stateMutability": "view",
      "type": "function"
    },
    {
      "inputs": [
        {
          "internalType": "address",
          "name": "_userAddress",
          "type": "address"
        }
      ],
      "name": "getRole",
      "outputs": [
        {
          "internalType": "enum VotingSystem.Role",
          "name": "",
          "type": "uint8"
        }
      ],
      "stateMutability": "view",
      "type": "function"
    },
    {
      "inputs": [
        {
          "internalType": "uint256",
          "name": "_year",
          "type": "uint256"
        }
      ],
      "name": "getTurnoutRatio",
      "outputs": [
        {
          "internalType": "uint256",
          "name": "turnoutPercentage",
          "type": "uint256"
        }
      ],
      "stateMutability": "view",
      "type": "function"
    },
    {
      "inputs": [
        {
          "internalType": "address",
          "name": "_voterAddress",
          "type": "address"
        }
      ],
      "name": "getVoter",
      "outputs": [
        {
          "components": [
            {
              "internalType": "string",
              "name": "firstName",
              "type": "string"
            },
            {
              "internalType": "string",
              "name": "lastName",
              "type": "string"
            },
            {
              "internalType": "string",
              "name": "cnic",
              "type": "string"
            },
            {
              "internalType": "string",
              "name": "phoneNumber",
              "type": "string"
            },
            {
              "internalType": "uint256",
              "name": "birthYear",
              "type": "uint256"
            },
            {
              "internalType": "uint256",
              "name": "birthMonth",
              "type": "uint256"
            },
            {
              "internalType": "uint256",
              "name": "birthDay",
              "type": "uint256"
            },
            {
              "internalType": "string",
              "name": "constituency",
              "type": "string"
            },
            {
              "internalType": "string",
              "name": "gender",
              "type": "string"
            },
            {
              "internalType": "string",
              "name": "cnicImage",
              "type": "string"
            },
            {
              "internalType": "string",
              "name": "fingerprint",
              "type": "string"
            },
            {
              "internalType": "bool",
              "name": "acceptedVotingTerm",
              "type": "bool"
            },
            {
              "internalType": "uint256",
              "name": "electionYear",
              "type": "uint256"
            },
            {
              "internalType": "bool",
              "name": "isRegistered",
              "type": "bool"
            }
          ],
          "internalType": "struct VotingSystem.Voter",
          "name": "",
          "type": "tuple"
        }
      ],
      "stateMutability": "view",
      "type": "function"
    },
    {
      "inputs": [
        {
          "internalType": "string",
          "name": "_constituency",
          "type": "string"
        },
        {
          "internalType": "string",
          "name": "_gender",
          "type": "string"
        }
      ],
      "name": "getVoterCountByConstituency",
      "outputs": [
        {
          "internalType": "uint256",
          "name": "",
          "type": "uint256"
        }
      ],
      "stateMutability": "view",
      "type": "function"
    },
    {
      "inputs": [],
      "name": "getVoterCounts",
      "outputs": [
        {
          "internalType": "uint256",
          "name": "_totalVoters",
          "type": "uint256"
        },
        {
          "internalType": "uint256",
          "name": "_totalMaleVoters",
          "type": "uint256"
        },
        {
          "internalType": "uint256",
          "name": "_totalFemaleVoters",
          "type": "uint256"
        }
      ],
      "stateMutability": "view",
      "type": "function"
    },
    {
      "inputs": [
        {
          "internalType": "address",
          "name": "",
          "type": "address"
        },
        {
          "internalType": "string",
          "name": "",
          "type": "string"
        }
      ],
      "name": "hasVoted",
      "outputs": [
        {
          "internalType": "bool",
          "name": "",
          "type": "bool"
        }
      ],
      "stateMutability": "view",
      "type": "function"
    },
    {
      "inputs": [],
      "name": "i_admin",
      "outputs": [
        {
          "internalType": "address",
          "name": "",
          "type": "address"
        }
      ],
      "stateMutability": "view",
      "type": "function"
    },
    {
      "inputs": [],
      "name": "i_subAdmin",
      "outputs": [
        {
          "internalType": "address",
          "name": "",
          "type": "address"
        }
      ],
      "stateMutability": "view",
      "type": "function"
    },
    {
      "inputs": [
        {
          "internalType": "uint256",
          "name": "",
          "type": "uint256"
        }
      ],
      "name": "independentCandidateAddresses",
      "outputs": [
        {
          "internalType": "address",
          "name": "",
          "type": "address"
        }
      ],
      "stateMutability": "view",
      "type": "function"
    },
    {
      "inputs": [
        {
          "internalType": "address",
          "name": "",
          "type": "address"
        }
      ],
      "name": "independentCandidates",
      "outputs": [
        {
          "internalType": "string",
          "name": "firstName",
          "type": "string"
        },
        {
          "internalType": "string",
          "name": "lastName",
          "type": "string"
        },
        {
          "internalType": "string",
          "name": "cnic",
          "type": "string"
        },
        {
          "internalType": "string",
          "name": "phoneNumber",
          "type": "string"
        },
        {
          "internalType": "uint256",
          "name": "birthYear",
          "type": "uint256"
        },
        {
          "internalType": "uint256",
          "name": "birthMonth",
          "type": "uint256"
        },
        {
          "internalType": "uint256",
          "name": "birthDay",
          "type": "uint256"
        },
        {
          "internalType": "string",
          "name": "constituency",
          "type": "string"
        },
        {
          "internalType": "string",
          "name": "gender",
          "type": "string"
        },
        {
          "internalType": "string",
          "name": "cnicImage",
          "type": "string"
        },
        {
          "internalType": "string",
          "name": "fingerprint",
          "type": "string"
        },
        {
          "internalType": "string",
          "name": "partyName",
          "type": "string"
        },
        {
          "internalType": "string",
          "name": "independentCandidateAddress",
          "type": "string"
        },
        {
          "internalType": "string",
          "name": "flagSign",
          "type": "string"
        },
        {
          "internalType": "string",
          "name": "profileImage",
          "type": "string"
        },
        {
          "internalType": "bool",
          "name": "acceptedVotingTerm",
          "type": "bool"
        },
        {
          "internalType": "uint256",
          "name": "electionYear",
          "type": "uint256"
        },
        {
          "internalType": "bool",
          "name": "isRegistered",
          "type": "bool"
        },
        {
          "internalType": "string",
          "name": "seatType",
          "type": "string"
        },
        {
          "internalType": "uint256",
          "name": "voteCount",
          "type": "uint256"
        }
      ],
      "stateMutability": "view",
      "type": "function"
    },
    {
      "inputs": [
        {
          "internalType": "uint256",
          "name": "",
          "type": "uint256"
        }
      ],
      "name": "partyAddresses",
      "outputs": [
        {
          "internalType": "address",
          "name": "",
          "type": "address"
        }
      ],
      "stateMutability": "view",
      "type": "function"
    },
    {
      "inputs": [
        {
          "internalType": "string",
          "name": "_name",
          "type": "string"
        },
        {
          "internalType": "string",
          "name": "_seatType",
          "type": "string"
        },
        {
          "internalType": "string",
          "name": "_constituency",
          "type": "string"
        },
        {
          "internalType": "address",
          "name": "_walletAddress",
          "type": "address"
        },
        {
          "internalType": "string",
          "name": "_partyName",
          "type": "string"
        },
        {
          "internalType": "string",
          "name": "_cnic",
          "type": "string"
        },
        {
          "internalType": "string",
          "name": "_profilePic",
          "type": "string"
        },
        {
          "internalType": "string",
          "name": "_partySignImage",
          "type": "string"
        }
      ],
      "name": "registerCandidate",
      "outputs": [],
      "stateMutability": "nonpayable",
      "type": "function"
    },
    {
      "inputs": [
        {
          "internalType": "string",
          "name": "_firstName",
          "type": "string"
        },
        {
          "internalType": "string",
          "name": "_lastName",
          "type": "string"
        },
        {
          "internalType": "string",
          "name": "_cnic",
          "type": "string"
        },
        {
          "internalType": "string",
          "name": "_phoneNumber",
          "type": "string"
        },
        {
          "internalType": "uint256",
          "name": "_birthYear",
          "type": "uint256"
        },
        {
          "internalType": "uint256",
          "name": "_birthMonth",
          "type": "uint256"
        },
        {
          "internalType": "uint256",
          "name": "_birthDay",
          "type": "uint256"
        },
        {
          "internalType": "string",
          "name": "_constituency",
          "type": "string"
        },
        {
          "internalType": "string",
          "name": "_gender",
          "type": "string"
        },
        {
          "internalType": "string",
          "name": "_cnicImage",
          "type": "string"
        },
        {
          "internalType": "string",
          "name": "_fingerprint",
          "type": "string"
        },
        {
          "internalType": "string",
          "name": "_independentCandidateAddress",
          "type": "string"
        },
        {
          "internalType": "string",
          "name": "_flagSign",
          "type": "string"
        },
        {
          "internalType": "string",
          "name": "_profileImage",
          "type": "string"
        },
        {
          "internalType": "string",
          "name": "_seatType",
          "type": "string"
        }
      ],
      "name": "registerIndependentCandidate",
      "outputs": [],
      "stateMutability": "nonpayable",
      "type": "function"
    },
    {
      "inputs": [
        {
          "internalType": "string",
          "name": "_name",
          "type": "string"
        },
        {
          "internalType": "string",
          "name": "_leaderName",
          "type": "string"
        },
        {
          "internalType": "address",
          "name": "_leaderAddress",
          "type": "address"
        },
        {
          "internalType": "string",
          "name": "_leaderCnic",
          "type": "string"
        },
        {
          "internalType": "string",
          "name": "_flagSignName",
          "type": "string"
        },
        {
          "internalType": "string",
          "name": "_flagSignImage",
          "type": "string"
        },
        {
          "internalType": "string",
          "name": "_leaderFingerprint",
          "type": "string"
        },
        {
          "internalType": "string",
          "name": "_leaderProfilePic",
          "type": "string"
        }
      ],
      "name": "registerParty",
      "outputs": [],
      "stateMutability": "nonpayable",
      "type": "function"
    },
    {
      "inputs": [
        {
          "internalType": "string",
          "name": "_firstName",
          "type": "string"
        },
        {
          "internalType": "string",
          "name": "_lastName",
          "type": "string"
        },
        {
          "internalType": "string",
          "name": "_cnic",
          "type": "string"
        },
        {
          "internalType": "string",
          "name": "_phoneNumber",
          "type": "string"
        },
        {
          "internalType": "uint256",
          "name": "_birthYear",
          "type": "uint256"
        },
        {
          "internalType": "uint256",
          "name": "_birthMonth",
          "type": "uint256"
        },
        {
          "internalType": "uint256",
          "name": "_birthDay",
          "type": "uint256"
        },
        {
          "internalType": "string",
          "name": "_constituency",
          "type": "string"
        },
        {
          "internalType": "string",
          "name": "_gender",
          "type": "string"
        },
        {
          "internalType": "string",
          "name": "_cnicImage",
          "type": "string"
        },
        {
          "internalType": "string",
          "name": "_fingerprint",
          "type": "string"
        }
      ],
      "name": "registerVoter",
      "outputs": [],
      "stateMutability": "nonpayable",
      "type": "function"
    },
    {
      "inputs": [
        {
          "internalType": "address",
          "name": "",
          "type": "address"
        }
      ],
      "name": "registeredCandidates",
      "outputs": [
        {
          "internalType": "string",
          "name": "name",
          "type": "string"
        },
        {
          "internalType": "string",
          "name": "seatType",
          "type": "string"
        },
        {
          "internalType": "string",
          "name": "constituency",
          "type": "string"
        },
        {
          "internalType": "address",
          "name": "walletAddress",
          "type": "address"
        },
        {
          "internalType": "string",
          "name": "partyName",
          "type": "string"
        },
        {
          "internalType": "string",
          "name": "cnic",
          "type": "string"
        },
        {
          "internalType": "string",
          "name": "profilePic",
          "type": "string"
        },
        {
          "internalType": "string",
          "name": "partySignImage",
          "type": "string"
        },
        {
          "internalType": "uint256",
          "name": "electionYear",
          "type": "uint256"
        },
        {
          "internalType": "bool",
          "name": "isRegistered",
          "type": "bool"
        },
        {
          "internalType": "uint256",
          "name": "voteCount",
          "type": "uint256"
        },
        {
          "internalType": "enum VotingSystem.Role",
          "name": "assignRole",
          "type": "uint8"
        }
      ],
      "stateMutability": "view",
      "type": "function"
    },
    {
      "inputs": [
        {
          "internalType": "address",
          "name": "",
          "type": "address"
        }
      ],
      "name": "registeredParties",
      "outputs": [
        {
          "internalType": "string",
          "name": "name",
          "type": "string"
        },
        {
          "internalType": "string",
          "name": "leaderName",
          "type": "string"
        },
        {
          "internalType": "address",
          "name": "leaderAddress",
          "type": "address"
        },
        {
          "internalType": "string",
          "name": "leaderCnic",
          "type": "string"
        },
        {
          "internalType": "string",
          "name": "flagSignName",
          "type": "string"
        },
        {
          "internalType": "string",
          "name": "flagSignImage",
          "type": "string"
        },
        {
          "internalType": "string",
          "name": "leaderFingerprint",
          "type": "string"
        },
        {
          "internalType": "string",
          "name": "leaderProfilePic",
          "type": "string"
        },
        {
          "internalType": "uint256",
          "name": "electionYear",
          "type": "uint256"
        },
        {
          "internalType": "bool",
          "name": "isRegistered",
          "type": "bool"
        },
        {
          "internalType": "enum VotingSystem.Role",
          "name": "assignRole",
          "type": "uint8"
        }
      ],
      "stateMutability": "view",
      "type": "function"
    },
    {
      "inputs": [
        {
          "internalType": "address",
          "name": "",
          "type": "address"
        }
      ],
      "name": "roles",
      "outputs": [
        {
          "internalType": "enum VotingSystem.Role",
          "name": "",
          "type": "uint8"
        }
      ],
      "stateMutability": "view",
      "type": "function"
    },
    {
      "inputs": [
        {
          "internalType": "uint256",
          "name": "startDay",
          "type": "uint256"
        },
        {
          "internalType": "uint256",
          "name": "startMonth",
          "type": "uint256"
        },
        {
          "internalType": "uint256",
          "name": "startYear",
          "type": "uint256"
        },
        {
          "internalType": "uint256",
          "name": "startHour",
          "type": "uint256"
        },
        {
          "internalType": "uint256",
          "name": "endDay",
          "type": "uint256"
        },
        {
          "internalType": "uint256",
          "name": "endMonth",
          "type": "uint256"
        },
        {
          "internalType": "uint256",
          "name": "endYear",
          "type": "uint256"
        },
        {
          "internalType": "uint256",
          "name": "endHour",
          "type": "uint256"
        }
      ],
      "name": "setCandidateRegistrationPeriod",
      "outputs": [],
      "stateMutability": "nonpayable",
      "type": "function"
    },
    {
      "inputs": [
        {
          "internalType": "uint256",
          "name": "year",
          "type": "uint256"
        },
        {
          "internalType": "uint256",
          "name": "startDay",
          "type": "uint256"
        },
        {
          "internalType": "uint256",
          "name": "startMonth",
          "type": "uint256"
        },
        {
          "internalType": "uint256",
          "name": "startYear",
          "type": "uint256"
        },
        {
          "internalType": "uint256",
          "name": "startHour",
          "type": "uint256"
        },
        {
          "internalType": "uint256",
          "name": "endDay",
          "type": "uint256"
        },
        {
          "internalType": "uint256",
          "name": "endMonth",
          "type": "uint256"
        },
        {
          "internalType": "uint256",
          "name": "endYear",
          "type": "uint256"
        },
        {
          "internalType": "uint256",
          "name": "endHour",
          "type": "uint256"
        }
      ],
      "name": "setElectionYear",
      "outputs": [],
      "stateMutability": "nonpayable",
      "type": "function"
    },
    {
      "inputs": [
        {
          "internalType": "uint256",
          "name": "startDay",
          "type": "uint256"
        },
        {
          "internalType": "uint256",
          "name": "startMonth",
          "type": "uint256"
        },
        {
          "internalType": "uint256",
          "name": "startYear",
          "type": "uint256"
        },
        {
          "internalType": "uint256",
          "name": "startHour",
          "type": "uint256"
        },
        {
          "internalType": "uint256",
          "name": "endDay",
          "type": "uint256"
        },
        {
          "internalType": "uint256",
          "name": "endMonth",
          "type": "uint256"
        },
        {
          "internalType": "uint256",
          "name": "endYear",
          "type": "uint256"
        },
        {
          "internalType": "uint256",
          "name": "endHour",
          "type": "uint256"
        }
      ],
      "name": "setVoterRegistrationPeriod",
      "outputs": [],
      "stateMutability": "nonpayable",
      "type": "function"
    },
    {
      "inputs": [
        {
          "internalType": "uint256",
          "name": "_electionYear",
          "type": "uint256"
        }
      ],
      "name": "setYear",
      "outputs": [],
      "stateMutability": "nonpayable",
      "type": "function"
    },
    {
      "inputs": [],
      "name": "totalFemaleVoters",
      "outputs": [
        {
          "internalType": "uint256",
          "name": "",
          "type": "uint256"
        }
      ],
      "stateMutability": "view",
      "type": "function"
    },
    {
      "inputs": [],
      "name": "totalMaleVoters",
      "outputs": [
        {
          "internalType": "uint256",
          "name": "",
          "type": "uint256"
        }
      ],
      "stateMutability": "view",
      "type": "function"
    },
    {
      "inputs": [],
      "name": "totalVoters",
      "outputs": [
        {
          "internalType": "uint256",
          "name": "",
          "type": "uint256"
        }
      ],
      "stateMutability": "view",
      "type": "function"
    },
    {
      "inputs": [
        {
          "internalType": "uint256",
          "name": "",
          "type": "uint256"
        }
      ],
      "name": "totalVotersPerYear",
      "outputs": [
        {
          "internalType": "uint256",
          "name": "",
          "type": "uint256"
        }
      ],
      "stateMutability": "view",
      "type": "function"
    },
    {
      "inputs": [
        {
          "internalType": "address",
          "name": "_candidateAddress",
          "type": "address"
        },
        {
          "internalType": "string",
          "name": "_seatType",
          "type": "string"
        }
      ],
      "name": "vote",
      "outputs": [],
      "stateMutability": "nonpayable",
      "type": "function"
    },
    {
      "inputs": [
        {
          "internalType": "uint256",
          "name": "",
          "type": "uint256"
        }
      ],
      "name": "voterAddresses",
      "outputs": [
        {
          "internalType": "address",
          "name": "",
          "type": "address"
        }
      ],
      "stateMutability": "view",
      "type": "function"
    },
    {
      "inputs": [
        {
          "internalType": "uint256",
          "name": "",
          "type": "uint256"
        }
      ],
      "name": "voterRegistrationPeriods",
      "outputs": [
        {
          "internalType": "uint256",
          "name": "startDay",
          "type": "uint256"
        },
        {
          "internalType": "uint256",
          "name": "startMonth",
          "type": "uint256"
        },
        {
          "internalType": "uint256",
          "name": "startYear",
          "type": "uint256"
        },
        {
          "internalType": "uint256",
          "name": "startHour",
          "type": "uint256"
        },
        {
          "internalType": "uint256",
          "name": "endDay",
          "type": "uint256"
        },
        {
          "internalType": "uint256",
          "name": "endMonth",
          "type": "uint256"
        },
        {
          "internalType": "uint256",
          "name": "endYear",
          "type": "uint256"
        },
        {
          "internalType": "uint256",
          "name": "endHour",
          "type": "uint256"
        }
      ],
      "stateMutability": "view",
      "type": "function"
    },
    {
      "inputs": [
        {
          "internalType": "address",
          "name": "",
          "type": "address"
        }
      ],
      "name": "voters",
      "outputs": [
        {
          "internalType": "string",
          "name": "firstName",
          "type": "string"
        },
        {
          "internalType": "string",
          "name": "lastName",
          "type": "string"
        },
        {
          "internalType": "string",
          "name": "cnic",
          "type": "string"
        },
        {
          "internalType": "string",
          "name": "phoneNumber",
          "type": "string"
        },
        {
          "internalType": "uint256",
          "name": "birthYear",
          "type": "uint256"
        },
        {
          "internalType": "uint256",
          "name": "birthMonth",
          "type": "uint256"
        },
        {
          "internalType": "uint256",
          "name": "birthDay",
          "type": "uint256"
        },
        {
          "internalType": "string",
          "name": "constituency",
          "type": "string"
        },
        {
          "internalType": "string",
          "name": "gender",
          "type": "string"
        },
        {
          "internalType": "string",
          "name": "cnicImage",
          "type": "string"
        },
        {
          "internalType": "string",
          "name": "fingerprint",
          "type": "string"
        },
        {
          "internalType": "bool",
          "name": "acceptedVotingTerm",
          "type": "bool"
        },
        {
          "internalType": "uint256",
          "name": "electionYear",
          "type": "uint256"
        },
        {
          "internalType": "bool",
          "name": "isRegistered",
          "type": "bool"
        }
      ],
      "stateMutability": "view",
      "type": "function"
    },
    {
      "inputs": [
        {
          "internalType": "uint256",
          "name": "",
          "type": "uint256"
        }
      ],
      "name": "votesCastPerYear",
      "outputs": [
        {
          "internalType": "uint256",
          "name": "",
          "type": "uint256"
        }
      ],
      "stateMutability": "view",
      "type": "function"
    },
    {
      "inputs": [],
      "name": "withdrawCandidateRegistration",
      "outputs": [],
      "stateMutability": "nonpayable",
      "type": "function"
    }
  ],
  "bytecode": "0x60c034620000d557601f6200670438819003918201601f19168301916001600160401b03831184841017620000da57808492602094604052833981010312620000d557516001600160a01b0381168103620000d5573360805260a0523360005260046020526040600020600160ff198254161790556040516166139081620000f182396080518181816103340152818161169801528181611dc801528181611eda01528181611f54015281816121cd01528181613a2f01528181613d250152614c9b015260a0518181816118f201526122c00152f35b600080fd5b634e487b7160e01b600052604160045260246000fdfe61018080604052600436101561001457600080fd5b60003560e01c9081630154fecf1461549957508063029c21bd1461547b5780630474b034146153f05780631bf533a41461511a5780631ce0e62a146150c45780631e5ac39a146150a657806320b698f3146150a65780632772ab4714610c195780632e6997fe14614fd8578063320a282914614e9557806335bbe70e14614c7c5780633702c8bd14614c5657806341285cde14613d78578063442767331461272557806344a09e6514613d495780634c43d28414613d055780635428a53914613b1c5780635ab3227c14613a075780635c1e7bec146138b55780635f5300ff146138975780637c054c54146138795780638bf284101461325f57806391be9ba21461276957806399374642146127255780639a51d84f14612491578063a0cb656114612460578063a3ec138d146122e8578063adbc73cc146121a5578063b7adcf1d14612033578063b867bfcc14611f35578063b9899e8b14611f09578063bdd85ffa14611ebc578063c3ac1e0114611d9c578063c684706014611d5f578063c792d8fd14611d05578063ce9f449e14611c7a578063d4f50f9814611b05578063d55d73c514611ad4578063dd0e237314611a93578063df90886e146119cd578063e28a01ea146119a1578063e962e8b014611916578063f2fd082d146118d2578063fb6f82431461161d578063fd5f6cce14610c5e578063fdbd081a14610c195763ffc33f181461022557600080fd5b34610c1457610100366003190112610c14576004356001600160401b038111610c1457610256903690600401615a43565b6024356001600160401b038111610c1457610275903690600401615a43565b906044356001600160a01b0381168103610c14576064356001600160401b038111610c14576102a8903690600401615a43565b6084356001600160401b038111610c14576102c7903690600401615a43565b60a4356001600160401b038111610c14576102e6903690600401615a43565b9060c4356001600160401b038111610c1457610306903690600401615a43565b9260e4356001600160401b038111610c1457610326903690600401615a43565b9461035b6001600160a01b037f00000000000000000000000000000000000000000000000000000000000000001633146160d7565b6001600160a01b038116600052600a602052600860406000200154600054809114610bcf576040519061038d826159eb565b8882528960208301526001600160a01b03831660408301528360608301528460808301528560a08301528660c08301528760e0830152610100820152600161012082015260026101408201526001600160a01b038216600052600a602052604060002081518051906001600160401b03821161083a578190610419826104138654615bab565b86616234565b602090601f8311600114610b6357600092610b58575b50508160011b916000199060031b1c19161781555b60208201518051906001600160401b03821161083a5781906104768261046d6001870154615bab565b60018701616234565b602090601f8311600114610ae657600092610adb575b50508160011b916000199060031b1c19161760018201555b600281016001600160a01b036040840151166001600160a01b031982541617905560608201518051906001600160401b03821161083a5781906104f7826104ee6003870154615bab565b60038701616234565b602090601f8311600114610a6957600092610a5e575b50508160011b916000199060031b1c19161760038201555b60808201518051906001600160401b03821161083a5781906105578261054e6004870154615bab565b60048701616234565b602090601f83116001146109ec576000926109e1575b50508160011b916000199060031b1c19161760048201555b60a08201518051906001600160401b03821161083a5781906105b7826105ae6005870154615bab565b60058701616234565b602090601f831160011461096f57600092610964575b50508160011b916000199060031b1c19161760058201555b60c08201518051906001600160401b03821161083a5781906106178261060e6006870154615bab565b60068701616234565b602090601f83116001146108f2576000926108e7575b50508160011b916000199060031b1c19161760068201555b60e08201518051906001600160401b03821161083a576106758261066c6007860154615bab565b60078601616234565b602090601f83116001146108715791806101409492600994600092610866575b50508160011b916000199060031b1c19161760078201555b610100840151600882015501916106d76101208201511515849060ff801983541691151516179055565b015160048110156108505761ff0082549160081b169061ff001916179055600b54600160401b81101561083a576001810180600b55811015610824577f0175b7a638427703f0dbe7bb9bbf987a2551717b34e79f33b5b1008d1fa01db9016001600160a01b0382166001600160a01b03198254161790556001600160a01b0381166000526004602052604060002060ff1981541660021790556040519788976101008952610100890161078991615c89565b88810360208a015261079a91615c89565b906001600160a01b0316604088015286810360608801526107ba91615c89565b85810360808701526107cb91615c89565b84810360a08601526107dc91615c89565b83810360c08501526107ed91615c89565b82810360e08401526107fe91615c89565b037f7360e085b6448a962cdb21843dd280d27f9e1f2db9d554000a6e2f04c5e020b791a1005b634e487b7160e01b600052603260045260246000fd5b634e487b7160e01b600052604160045260246000fd5b634e487b7160e01b600052602160045260246000fd5b015190503880610695565b906007840160005260206000209160005b601f19851681106108cf575092610140949260019260099583601f198116106108b6575b505050811b0160078201556106ad565b015160001960f88460031b161c191690553880806108a6565b91926020600181928685015181550194019201610882565b01519050388061062d565b9250600684016000526020600020906000935b601f1984168510610949576001945083601f19811610610930575b505050811b016006820155610645565b015160001960f88460031b161c19169055388080610920565b81810151835560209485019460019093019290910190610905565b0151905038806105cd565b9250600584016000526020600020906000935b601f19841685106109c6576001945083601f198116106109ad575b505050811b0160058201556105e5565b015160001960f88460031b161c1916905538808061099d565b81810151835560209485019460019093019290910190610982565b01519050388061056d565b9250600484016000526020600020906000935b601f1984168510610a43576001945083601f19811610610a2a575b505050811b016004820155610585565b015160001960f88460031b161c19169055388080610a1a565b818101518355602094850194600190930192909101906109ff565b01519050388061050d565b9250600384016000526020600020906000935b601f1984168510610ac0576001945083601f19811610610aa7575b505050811b016003820155610525565b015160001960f88460031b161c19169055388080610a97565b81810151835560209485019460019093019290910190610a7c565b01519050388061048c565b9250600184016000526020600020906000935b601f1984168510610b3d576001945083601f19811610610b24575b505050811b0160018201556104a4565b015160001960f88460031b161c19169055388080610b14565b81810151835560209485019460019093019290910190610af9565b01519050388061042f565b9250836000526020600020906000935b601f1984168510610bb4576001945083601f19811610610b9b575b505050811b018155610444565b015160001960f88460031b161c19169055388080610b8e565b81810151835560209485019460019093019290910190610b73565b60405162461bcd60e51b815260206004820152601860248201527f506172747920616c7265616479207265676973746572656400000000000000006044820152606490fd5b600080fd5b34610c14576020610c5581610c45610c3036615adb565b92908160405193828580945193849201615b1e565b8101601081520301902090615b41565b54604051908152f35b34610c1457610100366003190112610c14576004356001600160401b038111610c1457610c8f903690600401615a43565b6024356001600160401b038111610c1457610cae903690600401615a43565b906044356001600160401b038111610c1457610cce903690600401615a43565b6001600160a01b036064351660643503610c14576084356001600160401b038111610c1457610d01903690600401615a43565b60a4356001600160401b038111610c1457610d20903690600401615a43565b9360c4356001600160401b038111610c1457610d40903690600401615a43565b9060e4356001600160401b038111610c1457610d60903690600401615a43565b9133600052600a6020526008604060002001546000548091036115c2576001600160a01b0360643516600052600c602052806008604060002001541461157d5760405190610dad826159cf565b8782528360208301528660408301526001600160a01b036064351660608301528560808301528860a08301528260c08301528460e08301526101008201526001610120820152600061014082015260036101608201526001600160a01b0360643516600052600c602052604060002081518051906001600160401b03821161083a578190610e3f826104138654615bab565b602090601f831160011461151157600092611506575b50508160011b916000199060031b1c19161781555b60208201518051906001600160401b03821161083a578190610e938261046d6001870154615bab565b602090601f831160011461149457600092611489575b50508160011b916000199060031b1c19161760018201555b60408201518051906001600160401b03821161083a578190610ef382610eea6002870154615bab565b60028701616234565b602090601f83116001146114175760009261140c575b50508160011b916000199060031b1c19161760028201555b600381016001600160a01b036060840151166001600160a01b031982541617905560808201518051906001600160401b03821161083a578190610f6b8261054e6004870154615bab565b602090601f831160011461139a5760009261138f575b50508160011b916000199060031b1c19161760048201555b60a08201518051906001600160401b03821161083a578190610fc2826105ae6005870154615bab565b602090601f831160011461131d57600092611312575b50508160011b916000199060031b1c19161760058201555b60c08201518051906001600160401b03821161083a5781906110198261060e6006870154615bab565b602090601f83116001146112a057600092611295575b50508160011b916000199060031b1c19161760068201555b60e08201518051906001600160401b03821161083a5761106e8261066c6007860154615bab565b602090601f831160011461121f5791806101609492600b94600092611214575b50508160011b916000199060031b1c19161760078201555b61010084015160088201556110d16101208501511515600983019060ff801983541691151516179055565b610140840151600a8201550191015160048110156108505760ff80198354169116179055600d5494600160401b86101561083a577f51e1714f7d4322665a2a40dd2ed04b449c60857c61e86ded02ac45cfe44bf2c4976111e561120f966111c66111f3946111b8611201986111726111528e6101009f600101600d55616069565b606435906001600160a01b038084549260031b9316831b921b1916179055565b6001600160a01b036064351660005260046020526040600020600360ff198254161790556111aa6040519e8f9e8f8181520190615c89565b8d810360208f015290615c89565b908b820360408d0152615c89565b906001600160a01b036064351660608b015289820360808b0152615c89565b9087820360a0890152615c89565b9085820360c0870152615c89565b9083820360e0850152615c89565b0390a1005b015190508d8061108e565b906007840160005260206000209160005b601f198516811061127d5750926101609492600192600b9583601f19811610611264575b505050811b0160078201556110a6565b015160001960f88460031b161c191690558d8080611254565b91926020600181928685015181550194019201611230565b015190508b8061102f565b9250600684016000526020600020906000935b601f19841685106112f7576001945083601f198116106112de575b505050811b016006820155611047565b015160001960f88460031b161c191690558b80806112ce565b818101518355602094850194600190930192909101906112b3565b015190508b80610fd8565b9250600584016000526020600020906000935b601f1984168510611374576001945083601f1981161061135b575b505050811b016005820155610ff0565b015160001960f88460031b161c191690558b808061134b565b81810151835560209485019460019093019290910190611330565b015190508b80610f81565b9250600484016000526020600020906000935b601f19841685106113f1576001945083601f198116106113d8575b505050811b016004820155610f99565b015160001960f88460031b161c191690558b80806113c8565b818101518355602094850194600190930192909101906113ad565b015190508b80610f09565b9250600284016000526020600020906000935b601f198416851061146e576001945083601f19811610611455575b505050811b016002820155610f21565b015160001960f88460031b161c191690558b8080611445565b8181015183556020948501946001909301929091019061142a565b015190508b80610ea9565b9250600184016000526020600020906000935b601f19841685106114eb576001945083601f198116106114d2575b505050811b016001820155610ec1565b015160001960f88460031b161c191690558b80806114c2565b818101518355602094850194600190930192909101906114a7565b015190508b80610e55565b9250836000526020600020906000935b601f1984168510611562576001945083601f19811610611549575b505050811b018155610e6a565b015160001960f88460031b161c191690558b808061153c565b81810151835560209485019460019093019290910190611521565b60405162461bcd60e51b815260206004820152601c60248201527f43616e64696461746520616c72656164792072656769737465726564000000006044820152606490fd5b60405162461bcd60e51b815260206004820152602d60248201527f4f6e6c7920726567697374657265642070617274792063616e20706572666f7260448201526c36903a3434b99030b1ba34b7b760991b6064820152608490fd5b34610c14576020366003190112610c14576001600160a01b0361163e615965565b600061014060405161164f816159eb565b606081526060602082015282604082015260608082015260606080820152606060a0820152606060c0820152606060e0820152826101008201528261012082015201526116bf827f00000000000000000000000000000000000000000000000000000000000000001633146160d7565b1680600052600a60205260ff600960406000200154161561189b57600052600a60205260406000206117a560ff6009604051936116fb856159eb565b61170481615be5565b855261171260018201615be5565b60208601526001600160a01b03600282015416604086015261173660038201615be5565b606086015261174760048201615be5565b608086015261175860058201615be5565b60a086015261176960068201615be5565b60c086015261177a60078201615be5565b60e086015260088101546101008601520154818116151561012085015260081c1661014083016161e9565b6040518091602082526118976101406118716117cf84516101606020880152610180870190615c89565b61185b61184761183361181f6117f860208a015195601f19968c60408982850301910152615c89565b6001600160a01b0360408b01511660608c015260608a0151868c83030160808d0152615c89565b6080890151858b83030160a08c0152615c89565b60a0880151848a83030160c08b0152615c89565b60c0870151838983030160e08a0152615c89565b9060e08601519087830301610100880152615c89565b926101008101516101208601526101208101511515828601520151610160840190615cae565b0390f35b60405162461bcd60e51b815260206004820152600f60248201526e14185c9d1e481b9bdd08199bdd5b99608a1b6044820152606490fd5b34610c14576000366003190112610c145760206040516001600160a01b037f0000000000000000000000000000000000000000000000000000000000000000168152f35b34610c14576020366003190112610c14576004356000526005602052604060002080546118976001830154926002810154906003810154600482015460058301549160076006850154940154946040519889988994919260e0969399989794919961010087019a8752602087015260408601526060850152608084015260a083015260c08201520152565b34610c14576020366003190112610c145760043560005260086020526020604060002054604051908152f35b34610c14576020366003190112610c145760043560005260056020526040600020604051906119fb826159b3565b61189760e0825492838552600181015494856020820152600282015480604083015260038301548060608401526004840154918260808501526005850154938460a082015260076006870154968760c0840152015496879101526040519889988994919260e0969399989794919961010087019a8752602087015260408601526060850152608084015260a083015260c08201520152565b34610c14576020366003190112610c1457600435600e54811015610c14576001600160a01b03611ac46020926160a0565b9190546040519260031b1c168152f35b34610c14576020366003190112610c1457600435600d54811015610c14576001600160a01b03611ac4602092616069565b34610c1457602080600319360112610c14576001600160a01b03611b27615965565b611b2f616364565b501680600052600f825260ff600d604060002001541615611c4357600052600f815260406000209060ff600d60405193611b688561597b565b611b7181615be5565b8552611b7f60018201615be5565b84860152611b8f60028201615be5565b6040860152611ba060038201615be5565b606086015260048101546080860152600581015460a0860152600681015460c0860152611bcf60078201615be5565b60e0860152611be060088201615be5565b610100860152611bf260098201615be5565b610120860152611c04600a8201615be5565b61014086015282600b820154161515610160860152600c81015461018086015201541615156101a0830152611897604051928284938452830190615cbb565b60405162461bcd60e51b815260048101839052600f60248201526e159bdd195c881b9bdd08199bdd5b99608a1b6044820152606490fd5b34610c14576020366003190112610c14576004356000526007602052604060002080546118976001830154926002810154906003810154600482015460058301549160076006850154940154946040519889988994919260e0969399989794919961010087019a8752602087015260408601526060850152608084015260a083015260c08201520152565b34610c14576020366003190112610c1457600435600b54811015610c14576001600160a01b03602091600b6000527f0175b7a638427703f0dbe7bb9bbf987a2551717b34e79f33b5b1008d1fa01db9015416604051908152f35b34610c1457602060ff611d906001600160a01b03611d7c36615a99565b911660005260138452604060002090615b41565b54166040519015158152f35b34610c1457610120366003190112610c1457602435600760443560e43560c43560a435606435611df6337f00000000000000000000000000000000000000000000000000000000000000006001600160a01b0316146160d7565b8084118015611e91575b611e099061612e565b60405196611e16886159b3565b87526020870194855260408701908152606087019060843582526080880192835260a0880193845260c0880194855260e0880195610104358752600435600052600560205260406000209851895551600189015551600288015551600387015551600486015551600585015551600684015551910155600080f35b5080841480611ea0575b611e00565b5084831180611e0057508483148015611e9b5750868211611e00565b34610c14576020366003190112610c1457611f016001600160a01b037f00000000000000000000000000000000000000000000000000000000000000001633146160d7565b600435600055005b34610c14576020366003190112610c145760043560005260096020526020604060002054604051908152f35b34610c14576000366003190112610c14576001600160a01b03611f7b817f00000000000000000000000000000000000000000000000000000000000000001633146160d7565b600b54908115611ffb57906040518091808252602080920193600b6000527f0175b7a638427703f0dbe7bb9bbf987a2551717b34e79f33b5b1008d1fa01db9926000915b838310611fe25761189786611fd6818a0382615a22565b60405191829182615b67565b8454811687529581019560019485019490920191611fbf565b60405162461bcd60e51b815260206004820152601060248201526f139bc81c185c9d1a595cc8199bdd5b9960821b6044820152606490fd5b34610c1457602080600319360112610c145761204d615965565b90612056616279565b506001600160a01b0380921680600052600c825260ff600960406000200154161561215c57600052600c815261214860ff600b60406000206040519561209b876159cf565b6120a482615be5565b87526120b260018301615be5565b868801526120c260028301615be5565b604088015260038201541660608701526120de60048201615be5565b60808701526120ef60058201615be5565b60a087015261210060068201615be5565b60c087015261211160078201615be5565b60e08701526008810154610100870152826009820154161515610120870152600a81015461014087015201541661016084016161e9565b611897604051928284938452830190615f55565b60405162461bcd60e51b815260206004820152601360248201527f43616e646964617465206e6f7420666f756e64000000000000000000000000006044820152606490fd5b0390fd5b34610c145760076121b536615f26565b956121fd6001600160a01b03999899969296959395807f00000000000000000000000000000000000000000000000000000000000000001633149081156122bc575b50616184565b8186118015612291575b6122109061612e565b6040519861221d8a6159b3565b89526020890190815260408901918252606089019283526080890193845260a0890194855260c0890195865260e08901968752600054600052600660205260406000209851895551600189015551600288015551600387015551600486015551600585015551600684015551910155600080f35b50818614806122a0575b612207565b50808511806122075750808514801561229b5750888411612207565b90507f00000000000000000000000000000000000000000000000000000000000000001633148b6121f7565b34610c14576020366003190112610c1457612301615965565b6001600160a01b0316600052600f602052604060002061232081615be5565b61232c60018301615be5565b9161233960028201615be5565b61234560038301615be5565b9160048101546005820154906006830154906007840161236490615be5565b61237060088601615be5565b9161237d60098701615be5565b9361238a600a8801615be5565b95600b88015460ff1699600c89015498600d015460ff16996040519d8e809e6101c080835282016123ba91615c89565b9080820390602001526123cc91615c89565b8d810360408f01526123dd91615c89565b8c810360608e01526123ee91615c89565b9260808c015260a08b015260c08a015288810360e08a015261240f91615c89565b87810361010089015261242191615c89565b86810361012088015261243391615c89565b85810361014087015261244591615c89565b92151561016085015261018084015215156101a08301520390f35b34610c14576020366003190112610c1457600435601254811015610c14576001600160a01b03611ac4602092616032565b34610c14576020366003190112610c14576124aa615965565b6001600160a01b0316600052601160205260406000206124c981615be5565b6124d560018301615be5565b610120526124e560028301615be5565b610140526124f560038301615be5565b61016052600482015460058301546006840154909161251660078601615be5565b61252260088701615be5565b61252e60098801615be5565b9061253b600a8901615be5565b92612548600b8a01615be5565b94612555600c8b01615be5565b96612562600d8c01615be5565b9861256f600e8d01615be5565b9a600f8d015460ff1660a05260108d01549c601181015460ff166080526012810161259990615be5565b60e052601301546101005260405160c0526102808060c0515260c051016125bf91615c89565b60c051810360c0516020015261012051906125d991615c89565b60c051810360c0516040015261014051906125f391615c89565b60c051810360c05160600152610160519061260d91615c89565b9260c0516080015260c05160a0015260c05160c0015260c051810360c05160e0015261263891615c89565b60c051810360c051610100015261264e91615c89565b60c051810360c051610120015261266491615c89565b60c051810360c051610140015261267a91615c89565b60c051810360c051610160015261269091615c89565b60c051810360c05161018001526126a691615c89565b60c051810360c0516101a001526126bc91615c89565b60c051810360c0516101c001526126d291615c89565b9060a051151560c0516101e0015260c0516102000152608051151560c051610220015260c051810360c051610240015260e0519061270f91615c89565b6101005160c051610260015260c051900360c051f35b34610c14576020366003190112610c14576001600160a01b03612746615965565b166000526004602052602060ff604060002054166127676040518092615cae565bf35b34610c1457610160366003190112610c14576004356001600160401b038111610c145761279a903690600401615a43565b6024356001600160401b038111610c14576127b9903690600401615a43565b6044356001600160401b038111610c14576127d8903690600401615a43565b6064356001600160401b038111610c14576127f7903690600401615a43565b9060e4356001600160401b038111610c1457612817903690600401615a43565b91610104356001600160401b038111610c1457612838903690600401615a43565b610124356001600160401b038111610c1457612858903690600401615a43565b610144356001600160401b038111610c1457612878903690600401615a43565b9133600052600f602052600c604060002001549360005480951461321a57604051956128a38761597b565b89875288602088015260408701526060860152608435608086015260a43560a086015260c43560c08601528560e0860152610100850152610120840152610140830152600161016083015261018082015260016101a082015233600052600f60205260406000209080518051906001600160401b03821161083a5781906129348261292e8754615bab565b87616234565b602090601f83116001146131ae576000926131a3575b50508160011b916000199060031b1c19161782555b60208101518051906001600160401b03821161083a578190612991826129886001880154615bab565b60018801616234565b602090601f831160011461313157600092613126575b50508160011b916000199060031b1c19161760018301555b60408101518051906001600160401b03821161083a5781906129f1826129e86002880154615bab565b60028801616234565b602090601f83116001146130b4576000926130a9575b50508160011b916000199060031b1c19161760028301555b60608101518051906001600160401b03821161083a578190612a5182612a486003880154615bab565b60038801616234565b602090601f83116001146130375760009261302c575b50508160011b916000199060031b1c19161760038301555b6080810151600483015560a0810151600583015560c0810151600683015560e08101518051906001600160401b03821161083a578190612acf82612ac66007880154615bab565b60078801616234565b602090601f8311600114612fba57600092612faf575b50508160011b916000199060031b1c19161760078301555b6101008101518051906001600160401b03821161083a578190612b3082612b276008880154615bab565b60088801616234565b602090601f8311600114612f3d57600092612f32575b50508160011b916000199060031b1c19161760088301555b6101208101518051906001600160401b03821161083a578190612b9182612b886009880154615bab565b60098801616234565b602090601f8311600114612ec057600092612eb5575b50508160011b916000199060031b1c19161760098301555b6101408101518051906001600160401b03821161083a57612bf082612be7600a870154615bab565b600a8701616234565b602090601f8311600114612e3b579282600d936101a093612c6e9796600092612e30575b50508160011b916000199060031b1c191617600a8501555b612c4c6101608201511515600b86019060ff801983541691151516179055565b610180810151600c8501550151151591019060ff801983541691151516179055565b612c796001546162d2565b60015560005460005260086020526040600020612c9681546162d2565b905533600052600f6020526008604060002001604051612ccc81612cbe6020820180956162e1565b03601f198101835282615a22565b5190206040519060208201636d616c6560e01b9283825260048152612cf081615a07565b51902003612dd557612d216020602493612d0b6002546162d2565b6002558160405193828580945193849201615b1e565b81016010815203019020604051918252600482015220612d4181546162d2565b90555b600e5491600160401b83101561083a5761120f612dc792612dad612d8f8660017f96ac7a421360a2bd773d747b2f64b40a916821c4906dbfdebf787c292e741f7d9801600e556160a0565b33906001600160a01b038084549260031b9316831b921b1916179055565b604051938493338552606060208601526060850190615c89565b908382036040850152615c89565b50612dff6020602692612de96003546162d2565b6003558160405193828580945193849201615b1e565b81016010815203019020604051906566656d616c6560d01b8252600682015220612e2981546162d2565b9055612d44565b015190508a80612c14565b90600a850160005260206000209160005b601f1985168110612e9d5750836101a093612c6e979693600193600d97601f19811610612e84575b505050811b01600a850155612c2c565b015160001960f88460031b161c191690558a8080612e74565b91926020600181928685015181550194019201612e4c565b015190508780612ba7565b9250600985016000526020600020906000935b601f1984168510612f17576001945083601f19811610612efe575b505050811b016009830155612bbf565b015160001960f88460031b161c19169055878080612eee565b81810151835560209485019460019093019290910190612ed3565b015190508780612b46565b9250600885016000526020600020906000935b601f1984168510612f94576001945083601f19811610612f7b575b505050811b016008830155612b5e565b015160001960f88460031b161c19169055878080612f6b565b81810151835560209485019460019093019290910190612f50565b015190508780612ae5565b9250600785016000526020600020906000935b601f1984168510613011576001945083601f19811610612ff8575b505050811b016007830155612afd565b015160001960f88460031b161c19169055878080612fe8565b81810151835560209485019460019093019290910190612fcd565b015190508780612a67565b9250600385016000526020600020906000935b601f198416851061308e576001945083601f19811610613075575b505050811b016003830155612a7f565b015160001960f88460031b161c19169055878080613065565b8181015183556020948501946001909301929091019061304a565b015190508780612a07565b9250600285016000526020600020906000935b601f198416851061310b576001945083601f198116106130f2575b505050811b016002830155612a1f565b015160001960f88460031b161c191690558780806130e2565b818101518355602094850194600190930192909101906130c7565b0151905087806129a7565b9250600185016000526020600020906000935b601f1984168510613188576001945083601f1981161061316f575b505050811b0160018301556129bf565b015160001960f88460031b161c1916905587808061315f565b81810151835560209485019460019093019290910190613144565b01519050878061294a565b9250846000526020600020906000935b601f19841685106131ff576001945083601f198116106131e6575b505050811b01825561295f565b015160001960f88460031b161c191690558780806131d9565b818101518355602094850194600190930192909101906131be565b60405162461bcd60e51b815260206004820152601860248201527f566f74657220616c7265616479207265676973746572656400000000000000006044820152606490fd5b34610c14576000366003190112610c145733600052600f60205261328d60ff600d604060002001541661648b565b33600052600f6020526132a66007604060002001615be5565b6000906000600d54905b8181106137ef57506132da6132c4846163cd565b936132d26040519586615a22565b8085526163cd565b601f190160005b8181106137d85750506000805b8281106136e557505050600090600090601254915b82811061362057506133176132c4846163cd565b60005b601f19820181106136095750506000805b8381106133fb578486604051918291604083016040845281518091526060840190602060608260051b8701019301916000905b8282106133ca57505050508281036020840152815180825260208201916020808360051b8301019401926000915b8383106133995786860387f35b9193955091936020806133b8600193601f198682030187528951615daf565b9701930193019092869594929361338c565b91936001919395965060206133ea8192605f198b82030186528851615f55565b96019201920186959493919261335e565b6001600160a01b0361340c82616032565b90549060031b1c16600052601160205260406000206040519061342e82615997565b61343781615be5565b825261344560018201615be5565b602083015261345660028201615be5565b604083015261346760038201615be5565b606083015260048101546080830152600581015460a0830152600681015460c083015261349660078201615be5565b9060e083019182526134aa60088201615be5565b6101008401526134bc60098201615be5565b6101208401526134ce600a8201615be5565b6101408401526134e0600b8201615be5565b6101608401526134f2600c8201615be5565b610180840152613504600d8201615be5565b6101a0840152613516600e8201615be5565b6101c084015260ff600f8201541615156101e08401526010810154610200840152601360ff601183015416916102208501921515835261355860128201615be5565b610240860152015461026084015251151590816135b0575b50613585575b50613580906162d2565b61332b565b826135a9916135986135809495896163e4565b526135a381886163e4565b506162d2565b9190613576565b9050516040516135dd602082816135d08183019687815193849201615b1e565b8101038084520182615a22565b51902060405160208101906135ff602082816135d08b87815193849201615b1e565b5190201488613570565b6020906136146163f8565b8282880101520161331a565b61362981616032565b906001600160a01b03809154600393841b1c166000526011908160205260ff8260406000200154169283613683575b50505061366e575b613669906162d2565b613303565b9261367b613669916162d2565b939050613660565b9091925061369084616032565b9054911b1c1660005260205260076040600020016040516136b981612cbe6020820180956162e1565b51902060405160208101906136d960208287516135d08187858c01615b1e565b51902014868080613658565b6136ee81616069565b6001600160a01b03809254600392831b1c16600052600c60205261376660ff600b604060002060405195613721876159cf565b61372a82615be5565b875261373860018301615be5565b602088015261374960028301615be5565b95604088019687528201541660608701526120de60048201615be5565b51604051613784602082816135d08183019687815193849201615b1e565b51902060405160208101906137a6602082816135d08c87815193849201615b1e565b519020146137be575b506137b9906162d2565b6132ee565b826137d1916135986137b99495896163e4565b91906137af565b6020906137e3616279565b828288010152016132e1565b6001600160a01b0361380082616069565b90549060031b1c16600052600c602052600260406000200160405161382d81612cbe6020820180956162e1565b519020604051602081019061384d60208288516135d08187858d01615b1e565b51902014613864575b61385f906162d2565b6132b0565b9261387161385f916162d2565b939050613856565b34610c14576000366003190112610c14576020600354604051908152f35b34610c14576000366003190112610c14576020600154604051908152f35b34610c14576020366003190112610c14576001600160a01b03806138d7615965565b16600052600c60205260406000206138ee81615be5565b906138fb60018201615be5565b9261390860028301615be5565b90600383015416916004810161391d90615be5565b9261392a60058301615be5565b61393660068401615be5565b61394260078501615be5565b91600885015496600986015460ff1694600a87015496600b015460ff16976040519b8c9b8c6101808091528d0161397891615c89565b8c810360208e015261398991615c89565b8b810360408d015261399a91615c89565b9060608b015289810360808b01526139b191615c89565b88810360a08a01526139c291615c89565b87810360c08901526139d391615c89565b86810360e08801526139e491615c89565b936101008601521515610120850152610140840152610160830161189791615cae565b34610c14576007613a1736615f26565b95613a5e6001600160a01b03999899969296959395807f00000000000000000000000000000000000000000000000000000000000000001633149081156122bc5750616184565b8186118015613af1575b613a719061612e565b60405198613a7e8a6159b3565b89526020890190815260408901918252606089019283526080890193845260a0890194855260c0890195865260e089019687526000546000528760205260406000209851895551600189015551600288015551600387015551600486015551600585015551600684015551910155600080f35b5081861480613b00575b613a68565b5080851180613a6857508085148015613afb5750888411613a68565b34610c1457602080600319360112610c14576001600160a01b03613b3e615965565b613b466163f8565b5016806000526011825260ff6011604060002001541615613cc05760005260118152604060002090601360405192613b7d84615997565b613b8681615be5565b8452613b9460018201615be5565b83850152613ba460028201615be5565b6040850152613bb560038201615be5565b606085015260048101546080850152600581015460a0850152600681015460c0850152613be460078201615be5565b60e0850152613bf560088201615be5565b610100850152613c0760098201615be5565b610120850152613c19600a8201615be5565b610140850152613c2b600b8201615be5565b610160850152613c3d600c8201615be5565b610180850152613c4f600d8201615be5565b6101a0850152613c61600e8201615be5565b6101c085015260ff600f8201541615156101e0850152601081015461020085015260ff6011820154161515610220850152613c9e60128201615be5565b6102408501520154610260830152611897604051928284938452830190615daf565b60405162461bcd60e51b815260048101839052601f60248201527f496e646570656e64656e742043616e646964617465206e6f7420666f756e64006044820152606490fd5b34610c14576000366003190112610c145760206040516001600160a01b037f0000000000000000000000000000000000000000000000000000000000000000168152f35b34610c14576000366003190112610c145760606001546002546003549060405192835260208301526040820152f35b34610c14576101e0366003190112610c14576004356001600160401b038111610c1457613da9903690600401615a43565b6024356001600160401b038111610c1457613dc8903690600401615a43565b6044356001600160401b038111610c1457613de7903690600401615a43565b906064356001600160401b038111610c1457613e07903690600401615a43565b9160e4356001600160401b038111610c1457613e27903690600401615a43565b92610104356001600160401b038111610c1457613e48903690600401615a43565b610124356001600160401b038111610c1457613e68903690600401615a43565b610144356001600160401b038111610c1457613e88903690600401615a43565b610164356001600160401b038111610c1457613ea8903690600401615a43565b90610184356001600160401b038111610c1457613ec9903690600401615a43565b926101a4356001600160401b038111610c1457613eea903690600401615a43565b946001600160401b036101c43511610c1457613f0c366101c435600401615a43565b9933600052601160205260106040600020015497600054809914614c005760405199613f378b615997565b8d8b528b60208c015260408b015260608a015260843560808a015260a43560a08a015260c43560c08a015260e0890152610100880152610120870152610140860152604051613f8581615a07565b600b81526a125b99195c195b99195b9d60aa1b60208201526101608601526101808501526101a08401526101c083015260016101e0830152610200820152600161022082015282610240820152600061026082015233600052601160205260406000209080518051906001600160401b03821161083a57819061400c8261292e8754615bab565b602090601f8311600114614b9457600092614b89575b50508160011b916000199060031b1c19161782555b60208101518051906001600160401b03821161083a578190614060826129886001880154615bab565b602090601f8311600114614b1757600092614b0c575b50508160011b916000199060031b1c19161760018301555b60408101518051906001600160401b03821161083a5781906140b7826129e86002880154615bab565b602090601f8311600114614a9a57600092614a8f575b50508160011b916000199060031b1c19161760028301555b60608101518051906001600160401b03821161083a57819061410e82612a486003880154615bab565b602090601f8311600114614a1d57600092614a12575b50508160011b916000199060031b1c19161760038301555b6080810151600483015560a0810151600583015560c0810151600683015560e08101518051906001600160401b03821161083a57819061418382612ac66007880154615bab565b602090601f83116001146149a057600092614995575b50508160011b916000199060031b1c19161760078301555b6101008101518051906001600160401b03821161083a5781906141db82612b276008880154615bab565b602090601f831160011461492357600092614918575b50508160011b916000199060031b1c19161760088301555b6101208101518051906001600160401b03821161083a57819061423382612b886009880154615bab565b602090601f83116001146148a65760009261489b575b50508160011b916000199060031b1c19161760098301555b6101408101518051906001600160401b03821161083a5781906142948261428b600a880154615bab565b600a8801616234565b602090601f83116001146148295760009261481e575b50508160011b916000199060031b1c191617600a8301555b6101608101518051906001600160401b03821161083a5781906142f5826142ec600b880154615bab565b600b8801616234565b602090601f83116001146147ac576000926147a1575b50508160011b916000199060031b1c191617600b8301555b6101808101518051906001600160401b03821161083a5781906143568261434d600c880154615bab565b600c8801616234565b602090601f831160011461472f57600092614724575b50508160011b916000199060031b1c191617600c8301555b6101a08101518051906001600160401b03821161083a5781906143b7826143ae600d880154615bab565b600d8801616234565b602090601f83116001146146b2576000926146a7575b50508160011b916000199060031b1c191617600d8301555b6101c08101518051906001600160401b03821161083a5781906144188261440f600e880154615bab565b600e8801616234565b602090601f83116001146146355760009261462a575b50508160011b916000199060031b1c191617600e8301555b6144666101e08201511515600f84019060ff801983541691151516179055565b61020081015160108301556144916102208201511515601184019060ff801983541691151516179055565b601282016102408201518051906001600160401b03821161083a576144c0826144ba8554615bab565b85616234565b602090601f831160011461458b57946013610260614544999660409686614551977f903ec26dabefe8e104dd00053ea9a41bf0aef853803fb6b6e4fb43b2e725895f9e9c9761120f9c600092614580575b50508160011b916000199060031b1c19161790555b0151910155825196879633885260a0602089015260a0880190615c89565b9086820384880152615c89565b81858203806060880152600b83526a125b99195c195b99195b9d60aa1b60208401520160808601520190615c89565b015190508f80614511565b90601f198316918460005260206000209260005b818110614612575061454499966040966001877f903ec26dabefe8e104dd00053ea9a41bf0aef853803fb6b6e4fb43b2e725895f9e9c9761120f9c976013976145519b61026098106145f9575b505050811b019055614526565b015160001960f88460031b161c191690558f80806145ec565b9293602060018192878601518155019501930161459f565b01519050878061442e565b9250600e85016000526020600020906000935b601f198416851061468c576001945083601f19811610614673575b505050811b01600e830155614446565b015160001960f88460031b161c19169055878080614663565b81810151835560209485019460019093019290910190614648565b0151905087806143cd565b9250600d85016000526020600020906000935b601f1984168510614709576001945083601f198116106146f0575b505050811b01600d8301556143e5565b015160001960f88460031b161c191690558780806146e0565b818101518355602094850194600190930192909101906146c5565b01519050878061436c565b9250600c85016000526020600020906000935b601f1984168510614786576001945083601f1981161061476d575b505050811b01600c830155614384565b015160001960f88460031b161c1916905587808061475d565b81810151835560209485019460019093019290910190614742565b01519050878061430b565b9250600b85016000526020600020906000935b601f1984168510614803576001945083601f198116106147ea575b505050811b01600b830155614323565b015160001960f88460031b161c191690558780806147da565b818101518355602094850194600190930192909101906147bf565b0151905087806142aa565b9250600a85016000526020600020906000935b601f1984168510614880576001945083601f19811610614867575b505050811b01600a8301556142c2565b015160001960f88460031b161c19169055878080614857565b8181015183556020948501946001909301929091019061483c565b015190508780614249565b9250600985016000526020600020906000935b601f19841685106148fd576001945083601f198116106148e4575b505050811b016009830155614261565b015160001960f88460031b161c191690558780806148d4565b818101518355602094850194600190930192909101906148b9565b0151905087806141f1565b9250600885016000526020600020906000935b601f198416851061497a576001945083601f19811610614961575b505050811b016008830155614209565b015160001960f88460031b161c19169055878080614951565b81810151835560209485019460019093019290910190614936565b015190508780614199565b9250600785016000526020600020906000935b601f19841685106149f7576001945083601f198116106149de575b505050811b0160078301556141b1565b015160001960f88460031b161c191690558780806149ce565b818101518355602094850194600190930192909101906149b3565b015190508780614124565b9250600385016000526020600020906000935b601f1984168510614a74576001945083601f19811610614a5b575b505050811b01600383015561413c565b015160001960f88460031b161c19169055878080614a4b565b81810151835560209485019460019093019290910190614a30565b0151905087806140cd565b9250600285016000526020600020906000935b601f1984168510614af1576001945083601f19811610614ad8575b505050811b0160028301556140e5565b015160001960f88460031b161c19169055878080614ac8565b81810151835560209485019460019093019290910190614aad565b015190508780614076565b9250600185016000526020600020906000935b601f1984168510614b6e576001945083601f19811610614b55575b505050811b01600183015561408e565b015160001960f88460031b161c19169055878080614b45565b81810151835560209485019460019093019290910190614b2a565b015190508780614022565b9250846000526020600020906000935b601f1984168510614be5576001945083601f19811610614bcc575b505050811b018255614037565b015160001960f88460031b161c19169055878080614bbf565b81810151835560209485019460019093019290910190614ba4565b60405162461bcd60e51b815260206004820152602860248201527f496e646570656e64656e742043616e64696461746520616c726561647920726560448201526719da5cdd195c995960c21b6064820152608490fd5b34610c14576020366003190112610c14576020614c7460043561658a565b604051908152f35b34610c14576000366003190112610c14576001600160a01b03614cc2817f00000000000000000000000000000000000000000000000000000000000000001633146160d7565b600e54614cce816163cd565b90614cdc6040519283615a22565b808252614ce8816163cd565b60209390601f19018460005b828110614e7f5750505060005b828110614d6a575050506040519082820192808352815180945260408301938160408260051b8601019301916000955b828710614d3e5785850386f35b909192938280614d5a600193603f198a82030186528851615cbb565b9601920196019592919092614d31565b8082614d78614e7a936160a0565b919054600392831b1c16600052600f87526040600020614dd160405192614d9e8461597b565b614da783615be5565b8452614db560018401615be5565b8a850152614dc560028401615be5565b60408501528201615be5565b606083015260048101546080830152600581015460a0830152600681015460c0830152614e0060078201615be5565b60e0830152614e1160088201615be5565b610100830152614e2360098201615be5565b610120830152614e35600a8201615be5565b610140830152600d60ff9182600b820154161515610160850152600c81015461018085015201541615156101a0820152614e6f82876163e4565b526135a381866163e4565b614d01565b614e87616364565b828288010152018590614cf4565b34610c14576020366003190112610c14576001600160a01b0380614eb7615965565b16600052600a6020526040600020614ece81615be5565b90614edb60018201615be5565b9260028201541660038201614eef90615be5565b614efb60048401615be5565b614f0760058501615be5565b614f1360068601615be5565b91614f2060078701615be5565b936008870154966009015495604051998a99610160808c528b01614f4391615c89565b8a810360208c0152614f5491615c89565b9060408a015288810360608a0152614f6b91615c89565b8781036080890152614f7c91615c89565b86810360a0880152614f8d91615c89565b85810360c0870152614f9e91615c89565b84810360e0860152614faf91615c89565b9161010084015260ff8116151561012084015261014083019060081c60ff169061189791615cae565b34610c14576000366003190112610c1457600d5480156150615760405180828152602080910192600d6000527fd7b6990105719101dabeb77144f2a3385c8033acd3af97e9423a695e81ad1eb5916000905b8282106150415761189785611fd681890382615a22565b83546001600160a01b03168652948501946001938401939091019061502a565b60405162461bcd60e51b815260206004820152601360248201527f4e6f2063616e6469646174657320666f756e64000000000000000000000000006044820152606490fd5b34610c14576000366003190112610c14576020600054604051908152f35b34610c14576000366003190112610c14576000546150e18161658a565b6000198201918211615104576150f860409261658a565b82519182526020820152f35b634e487b7160e01b600052601160045260246000fd5b34610c145761512836615a99565b33600052602090600f825261514760ff600d604060002001541661648b565b336000526013825260ff61515f604060002083615b41565b54161515926040517f596f75206861766520616c726561647920766f74656420666f72200000000000848201528251946151b6603b83878701986151a6818484018c615b1e565b810103601b810185520183615a22565b6153ce575033600052600f83526001600160a01b036151db6007604060002001615be5565b91169384600052600c845260ff600960406000200154166000146153385791600a615333926152d67f8d1cfb67c4b6ddfa4950ade9b8090e8da23fb82114fea7fd43c4cbbe2c2367b39588600052600c88526135d060406000209361528c604051918b83018361524e8260028b016162e1565b0393615262601f1995868101835282615a22565b519020908c6152836040519182816135d08183019687815193849201615b1e565b519020146164d7565b6040516152b08b820192826152a48560018b016162e1565b03908101835282615a22565b519020916152cd8a60405180938282019586918c51928391615b1e565b51902014616533565b016152e181546162d2565b90555b33600052601384526152fa604060002082615b41565b600160ff1982541617905560005460005260098452604060002061531e81546162d2565b90556040519182918583523395830190615c89565b0390a3005b916011845260ff6011604060002001541660001461215c576013615333926153bc7f8d1cfb67c4b6ddfa4950ade9b8090e8da23fb82114fea7fd43c4cbbe2c2367b39588600052601188526135d06040600020936153a4604051918b83018361524e8260078b016162e1565b6040516152b08b820192826152a48560128b016162e1565b016153c781546162d2565b90556152e4565b836121a160405192839262461bcd60e51b845260048401526024830190615c89565b34610c14576020366003190112610c14576004356000526006602052604060002080546118976001830154926002810154906003810154600482015460058301549160076006850154940154946040519889988994919260e0969399989794919961010087019a8752602087015260408601526060850152608084015260a083015260c08201520152565b34610c14576000366003190112610c14576020600254604051908152f35b34610c14576000366003190112610c145733600052602090600c825260ff600960406000200154166000146156c2575033600052600c815260406000206154e96154e38254615bab565b8261620c565b6000908181556004600193838584016155056154e38254615bab565b5583600284016155186154e38254615bab565b556003938484016001600160a01b031981541690558083850161553e6154e38254615bab565b5580600585016155516154e38254615bab565b5580600685016155646154e38254615bab565b55600784016155766154e38254615bab565b5560006008840155600b600984019360ff19948581541690556000600a8201550183815416905533600052526040600020908154169055816000925b6155e2575b505050337fb77cc9dd393c213e24953ace4631acb65f43ec38d923c65e6c1441d94cc420d6600080a2005b600d928354808210156156bb576155f882616069565b90546001600160a01b039291861b1c8216331461562557505061561d919293506162d2565b9190806155b2565b60001994935084810191908211615104576156719361564661565293616069565b9054911b1c1691616069565b9091906001600160a01b038084549260031b9316831b921b1916179055565b815480156156a557019061569c61568783616069565b6001600160a01b0382549160031b1b19169055565b558080806155b7565b634e487b7160e01b600052603160045260246000fd5b50506155b7565b60119081835260ff8260406000200154166000146159145750336000528082526040600020906156fb6156f58354615bab565b8361620c565b600092838355600192848482016157156154e38254615bab565b5584600282016157286154e38254615bab565b5560046003928684840161573f6154e38254615bab565b55600082840155600060058401556000600684015586600784016157666154e38254615bab565b5586600884016157796154e38254615bab565b55866009840161578c6154e38254615bab565b5586600a840161579f6154e38254615bab565b5586600b84016157b26154e38254615bab565b5586600c84016157c56154e38254615bab565b5586600d84016157d86154e38254615bab565b5586600e84016157eb6154e38254615bab565b5560006013600f85019460ff19958681541690558260108201558781018681541690556012998a82016158216154e38254615bab565b55015533600052526040600020908154169055826000905b61586b575b5050505050337fb77cc9dd393c213e24953ace4631acb65f43ec38d923c65e6c1441d94cc420d6600080a2005b84548082101561590e5761587e82616032565b90546001600160a01b039291851b1c821633146158a65750506158a0906162d2565b83615839565b909291939450600019948582019182116158fa575091615652916158cd6158d99594616032565b9054911b1c1691616032565b815480156156a55701906158ef61568783616032565b55808080808061583e565b634e487b7160e01b60005260045260246000fd5b5061583e565b62461bcd60e51b815260048101839052602660248201527f596f7520617265206e6f74207265676973746572656420617320612063616e6460448201526534b230ba329760d11b6064820152608490fd5b600435906001600160a01b0382168203610c1457565b6101c081019081106001600160401b0382111761083a57604052565b61028081019081106001600160401b0382111761083a57604052565b61010081019081106001600160401b0382111761083a57604052565b61018081019081106001600160401b0382111761083a57604052565b61016081019081106001600160401b0382111761083a57604052565b604081019081106001600160401b0382111761083a57604052565b90601f801991011681019081106001600160401b0382111761083a57604052565b81601f82011215610c14578035906001600160401b03821161083a5760405192615a77601f8401601f191660200185615a22565b82845260208383010111610c1457816000926020809301838601378301015290565b906040600319830112610c14576004356001600160a01b0381168103610c145791602435906001600160401b038211610c1457615ad891600401615a43565b90565b906040600319830112610c14576001600160401b03600435818111610c145783615b0791600401615a43565b92602435918211610c1457615ad891600401615a43565b60005b838110615b315750506000910152565b8181015183820152602001615b21565b602090615b5b928260405194838680955193849201615b1e565b82019081520301902090565b6020908160408183019282815285518094520193019160005b828110615b8e575050505090565b83516001600160a01b031685529381019392810192600101615b80565b90600182811c92168015615bdb575b6020831014615bc557565b634e487b7160e01b600052602260045260246000fd5b91607f1691615bba565b90604051918260008254615bf881615bab565b908184526020946001918281169081600014615c675750600114615c28575b505050615c2692500383615a22565b565b600090815285812095935091905b818310615c4f575050615c269350820101388080615c17565b85548884018501529485019487945091830191615c36565b92505050615c2694925060ff191682840152151560051b820101388080615c17565b90602091615ca281518092818552858086019101615b1e565b601f01601f1916010190565b9060048210156108505752565b90615d87615d73615d5f615d4b615d1b615d09615cf7615ce56101c08a5190808b528a0190615c89565b60208a015189820360208b0152615c89565b604089015188820360408a0152615c89565b60608801518782036060890152615c89565b6080870151608087015260a087015160a087015260c087015160c087015260e087015186820360e0880152615c89565b610100808701519086830390870152615c89565b610120808601519085830390860152615c89565b610140808501519084830390850152615c89565b916101608082015115159083015261018080820151908301526101a080910151151591015290565b90615f18615edf615ecb615eb7615ea3615e8f615e7b615e67615e53615e23615e108c6040615e008e615dec610280855190808452830190615c89565b906020850151906020818403910152615c89565b9101518d820360408f0152615c89565b60608d01518c6060818403910152615c89565b60808c015160808c015260a08c015160a08c015260c08c015160c08c015260e08c01518b820360e08d0152615c89565b610100808c0151908b8303908c0152615c89565b610120808b0151908a8303908b0152615c89565b610140808a015190898303908a0152615c89565b610160808901519088830390890152615c89565b610180808801519087830390880152615c89565b6101a0808701519086830390870152615c89565b6101c0808601519085830390860152615c89565b6101e080850151151590840152610200808501519084015261022080850151151590840152610240808501519084830390850152615c89565b916102608091015191015290565b610100906003190112610c1457600435906024359060443590606435906084359060a4359060c4359060e43590565b90615ad890615fff615fed615fdb615fc9615fa4615f92615f806101808a5190808a52890190615c89565b60208a015188820360208a0152615c89565b60408901518782036040890152615c89565b6001600160a01b03606089015116606087015260808801518682036080880152615c89565b60a087015185820360a0870152615c89565b60c086015184820360c0860152615c89565b60e085015183820360e0850152615c89565b92610100808201519083015261012080820151151590830152610140808201519083015261016080910151910190615cae565b6012548110156108245760126000527fbb8a6a4669ba250d26cd7a459eca9d215f8307e33aebe50379bc5a3617ec34440190600090565b600d5481101561082457600d6000527fd7b6990105719101dabeb77144f2a3385c8033acd3af97e9423a695e81ad1eb50190600090565b600e5481101561082457600e6000527fbb7b4a454dc3493923482f07822329ed19e8244eff582cc204f8554c3620c3fd0190600090565b156160de57565b60405162461bcd60e51b815260206004820152602260248201527f4f6e6c792061646d696e2063616e20706572666f726d2074686973206163746960448201526137b760f11b6064820152608490fd5b1561613557565b60405162461bcd60e51b815260206004820152602160248201527f456e642074696d65206d7573742062652061667465722073746172742074696d6044820152606560f81b6064820152608490fd5b1561618b57565b60405162461bcd60e51b815260206004820152603060248201527f4f6e6c792061646d696e20616e64205375622041646d696e2063616e2070657260448201526f3337b936903a3434b99030b1ba34b7b760811b6064820152608490fd5b60048210156108505752565b818110616200575050565b600081556001016161f5565b90601f8111616219575050565b615c2691600052601f6020600020910160051c8101906161f5565b9190601f811161624357505050565b615c26926000526020600020906020601f840160051c8301931061626f575b601f0160051c01906161f5565b9091508190616262565b60405190616286826159cf565b600061016083606080825280602083015280604083015283818301528060808301528060a08301528060c083015260e08201528261010082015282610120820152826101408201520152565b60001981146151045760010190565b6000929181546162f081615bab565b92600191808316908115616349575060011461630d575b50505050565b90919293945060005260209081600020906000915b8583106163385750505050019038808080616307565b805485840152918301918101616322565b60ff1916845250505081151590910201915038808080616307565b604051906163718261597b565b816101a060609182815282602082015282604082015282808201526000928360808301528360a08301528360c08301528060e0830152806101008301528061012083015261014082015282610160820152826101808201520152565b6001600160401b03811161083a5760051b60200190565b80518210156108245760209160051b010190565b6040519061640582615997565b8161026060609182815282602082015282604082015282808201526000928360808301528360a08301528360c08301528060e08301528061010083015280610120830152806101408301528061016083015280610180830152806101a0830152806101c0830152836101e083015283610200830152836102208301526102408201520152565b1561649257565b60405162461bcd60e51b815260206004820152601e60248201527f596f7520617265206e6f742061207265676973746572656420766f74657200006044820152606490fd5b156164de57565b60405162461bcd60e51b815260206004820152602760248201527f43616e646964617465206973206e6f742066726f6d20796f757220636f6e7374604482015266697475656e637960c81b6064820152608490fd5b1561653a57565b60405162461bcd60e51b815260206004820152602260248201527f43616e64696461746520646f6573206e6f74206d617463682073656174207479604482015261706560f01b6064820152608490fd5b60009081526008602052604081205490600960205260408120549082156165d7576064820291808304606414901517156165c357500490565b634e487b7160e01b81526011600452602490fd5b9150509056fea2646970667358221220d5dbc0d9cdcf0df4c19bd89bee9261c0751a811c35e5ec0d416093c56901c18a64736f6c63430008150033",
  "linkReferences": {},
  "deployedLinkReferences": {}
}